:100000000C943E000C945B000C945B000C945B0021
:100010000C945B000C945B000C945B000C945B00F4
:100020000C945B000C945B000C945B000C945B00E4
:100030000C945B000C948C000C945B000C945B00A3
:100040000C945B000C945B000C945B000C945B00C4
:100050000C945B000C945B000C945B000C945B00B4
:100060000C945B000C945B000C945B000C945B00A4
:100070000C94C8000C945B000C945B0011241FBE10
:10008000CFEFD0E1DEBFCDBF11E0A0E0B1E0E4E210
:10009000F3E002C005900D92AA34B107D9F721E030
:1000A000AAE4B1E001C01D92AC3BB207E1F70E94A7
:1000B00059010C9490010C940000559A3A9A5D985D
:1000C00042980895882311F0429A0895429808951D
:1000D0002FB7F8946091B8017091B9018091BA017D
:1000E0009091BB012FBF0895E1E8F0E08081886026
:1000F00080838081836080838CE790E09093890087
:1001000080938800EFE6F0E0808182608083109227
:1001100085001092840008951F920F920FB60F92DF
:1001200011248F939F93AF93BF938091B8019091C7
:10013000B901A091BA01B091BB010196A11DB11DF9
:100140008093B8019093B901A093BA01B093BB0119
:10015000BF91AF919F918F910F900FBE0F901F9005
:1001600018959093CD008093CC0088E98093C900C6
:1001700086E08093CA000895FC019191992339F09B
:100180008091C80085FFFCCF9093CE00F6CF0895F4
:100190001F920F920FB60F9211242F933F934F93FC
:1001A0005F936F937F938F939F93AF93BF93EF93DF
:1001B000FF938091CE00E091B7018A3019F08D3025
:1001C00009F05CC0F0E0ED5AFE4F10821092B701CA
:1001D00060E071E083E591E00E948701892B11F5D1
:1001E00085E091E00E94BC005D9A42980E94680000
:1001F00060934F017093500180935101909352018D
:1002000088EE93E0A0E0B0E080934A0190934B0128
:10021000A0934C01B0934D0181E080934E0180E2A8
:1002200091E029C066E371E083E591E00E948701D7
:10023000892B71F585E091E00E94BC005D9A429A9D
:100240000E94680060934F017093500180935101A8
:100250009093520188EE93E0A0E0B0E080934A01D1
:1002600090934B01A0934C01B0934D0181E080939A
:100270004E018CE391E00E94BC000AC0E33640F4DA
:1002800091E09E0F9093B701F0E0ED5AFE4F80830E
:10029000FF91EF91BF91AF919F918F917F916F915E
:1002A0005F914F913F912F910F900FBE0F901F9034
:1002B000189583E390E00E94B10078940E945D005D
:1002C0000E94740080914E018823E1F30E9468002F
:1002D000C0904F01D0905001E0905101F090520138
:1002E00000914A0110914B0120914C0130914D0138
:1002F000DC01CB018C199D09AE09BF09801791075C
:10030000A207B307F8F25D9810924E01DBCFFB0114
:10031000DC018D91019080190110D9F3990B08959A
:04032000F894FFCF7F
:100324004F50454E004D6F746F72206F706572614F
:1003340074696F6E2073746172746564210D0A00B0
:100344004C6F6F73656E696E6720746865206772A1
:1003540069702E0D0A00434C4F5345004772697073
:0A03640070696E672121210D0A0067
:00000001FF
