:100000000C943E000C945B000C945B000C945B0021
:100010000C945B000C945B000C945B000C945B00F4
:100020000C945B000C945B000C945B000C945B00E4
:100030000C945B000C948C000C945B000C945B00A3
:100040000C945B000C945B000C945B000C945B00C4
:100050000C945B000C945B000C945B000C945B00B4
:100060000C945B000C945B000C945B000C945B00A4
:100070000C94E4000C945B000C945B0011241FBEF4
:10008000CFEFD0E1DEBFCDBF11E0A0E0B1E0ECE406
:10009000FAE002C005900D92AC35B107D9F721E026
:1000A000ACE5B1E001C01D92A23DB207E1F70E94AC
:1000B00075010C9424050C940000559A3A9A5D98A9
:1000C00042980895882311F0429A0895429808951D
:1000D0002FB7F8946091CE017091CF018091D0013B
:1000E0009091D1012FBF0895E1E8F0E08081886010
:1000F00080838081836080838CE790E09093890087
:1001000080938800EFE6F0E0808182608083109227
:1001100085001092840008951F920F920FB60F92DF
:1001200011248F939F93AF93BF938091CE019091B1
:10013000CF01A091D001B091D1010196A11DB11DB7
:100140008093CE019093CF01A093D001B093D101C1
:10015000BF91AF919F918F910F900FBE0F901F9005
:1001600018959093CD008093CC0088E98093C900C6
:1001700086E08093CA000895FC019191992339F09B
:100180008091C80085FFFCCF9093CE00F6CF0895F4
:1001900080E480937C0087E880937A0008959091B2
:1001A0007C00907F8F70892B80937C0080917A00F7
:1001B000806480937A0080917A0086FDFCCF8091E4
:1001C00078009091790008951F920F920FB60F92C8
:1001D00011242F933F934F935F936F937F938F934C
:1001E0009F93AF93BF93EF93FF938091CE00E091E5
:1001F000CD018A3019F08D3009F05CC0F0E0E7598C
:10020000FE4F10821092CD0160E071E089E691E02E
:100210000E943102892B11F585E091E00E94BC001B
:100220005D9A42980E946800609361017093620138
:1002300080936301909364018AEA90E0A0E0B0E0CB
:1002400080935C0190935D01A0935E01B0935F0188
:1002500081E08093600180E291E029C066E371E073
:1002600089E691E00E943102892B71F585E091E0E9
:100270000E94BC005D9A429A0E94680060936101EE
:100280007093620180936301909364018AEA90E025
:10029000A0E0B0E080935C0190935D01A0935E01CB
:1002A000B0935F0181E0809360018CE391E00E9454
:1002B000BC000AC0E33640F491E09E0F9093CD015C
:1002C000F0E0E759FE4F8083FF91EF91BF91AF912E
:1002D0009F918F917F916F915F914F913F912F915E
:1002E0000F900FBE0F901F901895CF93DF93CDB74F
:1002F000DEB7C058D1090FB6F894DEBF0FBECDBF30
:1003000083E390E00E94B10078940E945D000E9417
:1003100074000E94C800219A82E0D82E97EE892EA0
:1003200093E6992EA12CB12C2AE4E22E21E0F22EA4
:100330008E010F5F1F4F80916001882301F10E94A1
:1003400068002091610130916201409163015091F8
:10035000640140905C0150905D0160905E0170907E
:100360005F01DC01CB01821B930BA40BB50B841541
:100370009505A605B70518F05D98109260010E94DA
:100380006800409065015090660160906701709030
:100390006801DC01CB0184199509A609B709883EDB
:1003A0009340A105B10538F285B18D2585B90E942C
:1003B0006800609365017093660180936701909374
:1003C000680180E00E94CF009C01A8E8B3E10E9490
:1003D0002202A50194010E9400025F934F933F9374
:1003E0002F93FF92EF921F930F930E943A02C8013E
:1003F0000E94BC000FB6F894DEBF0FBECDBF9BCFEE
:10040000A1E21A2EAA1BBB1BFD010DC0AA1FBB1F18
:10041000EE1FFF1FA217B307E407F50720F0A21B8A
:10042000B30BE40BF50B661F771F881F991F1A94F7
:1004300069F760957095809590959B01AC01BD0121
:10044000CF010895A29FB001B39FC001A39F700D7B
:10045000811D1124911DB29F700D811D1124911DCC
:100460000895FB01DC018D91019080190110D9F3F1
:10047000990B0895AEE0B0E0E0E4F2E00C94FB04E8
:100480000D891E8986E08C831A8309838FEF9FE78D
:100490009E838D83AE01475E5F4F6F89788DCE015D
:1004A00001960E945C02EF81F885E00FF11F108237
:1004B0002E96E4E00C941705ABE0B0E0E2E6F2E043
:1004C0000C94ED046C017B018A01FC0117821682F9
:1004D000838181FFCCC1CE0101963C01F60193815D
:1004E000F70193FD859193FF81917F01882309F4A2
:1004F000BAC1853239F493FD859193FF81917F01D3
:10050000853229F4B60190E00E945304E7CF912C84
:10051000212C312CFFE1F315D8F08B3279F038F42F
:10052000803279F08332A1F4232D20611DC08D32F9
:1005300061F0803369F4232D216016C0832D826021
:10054000382EE32DE4603E2E2AC0F32DF8601DC046
:1005500037FC2DC020ED280F2A3040F08E32B9F440
:1005600036FC81C1232D2064322E19C036FE06C010
:100570008AE0989E200D1124922E11C0EAE02E9E52
:10058000200D1124222EF32DF0623F2E08C08C3650
:1005900021F4832D8068382E02C0883641F4F7019B
:1005A00093FD859193FF81917F018111B3CF982FA6
:1005B0009F7D9554933028F40C5F1F4F9FE39983E0
:1005C0000DC0833631F0833771F0833509F059C09F
:1005D00021C0F801808189830E5F1F4F8824839496
:1005E000912C530113C02801F2E04F0E511CF80169
:1005F000A080B18036FE03C0692D70E002C06FEFAD
:100600007FEFC5010E9448044C018201F32DFF7762
:100610003F2E16C0280122E0420E511CF801A08096
:10062000B18036FE03C0692D70E002C06FEF7FEF2E
:10063000C5010E943D044C01F32DF0683F2E82015C
:1006400033FC1BC0822D90E088169906B0F4B601E9
:1006500080E290E00E9453042A94F4CFF50137FC25
:10066000859137FE81915F01B60190E00E945304AD
:1006700021102A9421E0821A91088114910471F7C3
:10068000E8C0843611F0893641F5F80137FE07C01D
:1006900060817181828193810C5F1F4F08C06081EE
:1006A0007181072E000C880B990B0E5F1F4FF32DE5
:1006B000FF763F2E97FF09C09095809570956195C4
:1006C0007F4F8F4F9F4FF0683F2E2AE030E0A3010D
:1006D0000E948F04882E861845C0853731F4232D5B
:1006E0002F7EB22E2AE030E025C0932D997FB92EBF
:1006F0008F36C1F018F4883579F0B5C0803719F01D
:10070000883721F0B0C0E92FE061BE2EB4FE0DC0E5
:10071000FB2DF460BF2E09C034FE0AC0292F2660CD
:10072000B22E06C028E030E005C020E130E002C073
:1007300020E132E0F801B7FE07C06081718182815B
:1007400093810C5F1F4F06C06081718180E090E053
:100750000E5F1F4FA3010E948F04882E8618FB2D69
:10076000FF773F2E36FE0DC0232D2E7FA22E89143B
:1007700058F434FE0BC032FC09C0832D8E7EA82EA7
:1007800005C0B82CA32C03C0B82C01C0B92CA4FE02
:100790000FC0FE01E80DF11D8081803321F49A2DF8
:1007A000997EA92E09C0A2FE06C0B394B39404C0DA
:1007B0008A2D867809F0B394A3FC11C0A0FE06C070
:1007C000B21488F4280C922C9B180EC0B21460F45A
:1007D000B60180E290E00E945304B394F7CFB214C4
:1007E00018F42B1802C0982C212CA4FE10C0B601BE
:1007F00080E390E00E945304A2FE17C0A1FC03C056
:1008000088E790E002C088E590E0B6010CC08A2D30
:10081000867859F0A1FE02C08BE201C080E2A7FCFD
:100820008DE2B60190E00E945304891438F4B601B9
:1008300080E390E00E9453049A94F7CF8A94F301E6
:10084000E80DF11D8081B60190E00E9453048110F3
:10085000F5CF222009F442CEB60180E290E00E945A
:1008600053042A94F6CFF6018681978102C08FEF58
:100870009FEF2B96E2E10C940905FC010590615075
:1008800070400110D8F7809590958E0F9F1F0895A6
:10089000FC016150704001900110D8F7809590954F
:1008A0008E0F9F1F08950F931F93CF93DF93FB012C
:1008B000238121FD03C08FEF9FEF2CC022FF16C0C4
:1008C00046815781248135814217530744F4A08122
:1008D000B1819D012F5F3F4F318320838C9326810F
:1008E00037812F5F3F4F3783268314C08B01EC0184
:1008F000FB010084F185E02D0995892BE1F6D801F3
:1009000016968D919C911797019617969C938E93AE
:100910001697CE01DF91CF911F910F910895FA01A3
:10092000AA27283051F1203181F1E8946F936E7F2E
:100930006E5F7F4F8F4F9F4FAF4FB1E03ED0B4E01F
:100940003CD0670F781F891F9A1FA11D680F791F60
:100950008A1F911DA11D6A0F711D811D911DA11D71
:1009600020D009F468943F912AE0269F1124301981
:10097000305D3193DEF6CF010895462F4770405D1C
:100980004193B3E00FD0C9F7F6CF462F4F70405DCB
:100990004A3318F0495D31FD4052419302D0A9F726
:1009A000EACFB4E0A6959795879577956795BA9520
:1009B000C9F700976105710508959B01AC010A2EE6
:1009C00006945795479537952795BA95C9F7620FBD
:1009D000731F841F951FA01D08952F923F924F9261
:1009E0005F926F927F928F929F92AF92BF92CF92BF
:1009F000DF92EF92FF920F931F93CF93DF93CDB7C8
:100A0000DEB7CA1BDB0B0FB6F894DEBF0FBECDBF3F
:100A100009942A88398848885F846E847D848C8410
:100A20009B84AA84B984C884DF80EE80FD800C8119
:100A30001B81AA81B981CE0FD11D0FB6F894DEBFFC
:0C0A40000FBECDBFED010895F894FFCF6C
:100A4C004F50454E004D6F746F72206F7065726120
:100A5C0074696F6E2073746172746564210D0A0081
:100A6C004C6F6F73656E696E672074686520677272
:100A7C0069702E0D0A00434C4F5345004772697044
:100A8C0070696E672121210D0A0043757272656EC3
:0C0A9C00743A20256C75206D410D0A0095
:00000001FF
